{
  "_format": "hh-sol-artifact-1",
  "contractName": "DefaultStakableTokenValidator",
  "sourceName": "contracts/DefaultStakableTokenValidator.sol",
  "abi": [
    {
      "inputs": [
        {
          "internalType": "address",
          "name": "_dexTokenRegistryAddress",
          "type": "address"
        },
        {
          "internalType": "uint256",
          "name": "_dexTokenRegistryListId",
          "type": "uint256"
        },
        {
          "internalType": "address",
          "name": "_dexSwapFactoryAddress",
          "type": "address"
        }
      ],
      "stateMutability": "nonpayable",
      "type": "constructor"
    },
    {
      "anonymous": false,
      "inputs": [
        {
          "indexed": true,
          "internalType": "address",
          "name": "previousOwner",
          "type": "address"
        },
        {
          "indexed": true,
          "internalType": "address",
          "name": "newOwner",
          "type": "address"
        }
      ],
      "name": "OwnershipTransferred",
      "type": "event"
    },
    {
      "inputs": [],
      "name": "dexSwapFactory",
      "outputs": [
        {
          "internalType": "contract IDEXswapFactory",
          "name": "",
          "type": "address"
        }
      ],
      "stateMutability": "view",
      "type": "function"
    },
    {
      "inputs": [],
      "name": "dexTokenRegistry",
      "outputs": [
        {
          "internalType": "contract DEXTokenRegistry",
          "name": "",
          "type": "address"
        }
      ],
      "stateMutability": "view",
      "type": "function"
    },
    {
      "inputs": [],
      "name": "dexTokenRegistryListId",
      "outputs": [
        {
          "internalType": "uint256",
          "name": "",
          "type": "uint256"
        }
      ],
      "stateMutability": "view",
      "type": "function"
    },
    {
      "inputs": [],
      "name": "owner",
      "outputs": [
        {
          "internalType": "address",
          "name": "",
          "type": "address"
        }
      ],
      "stateMutability": "view",
      "type": "function"
    },
    {
      "inputs": [],
      "name": "renounceOwnership",
      "outputs": [],
      "stateMutability": "nonpayable",
      "type": "function"
    },
    {
      "inputs": [
        {
          "internalType": "address",
          "name": "_dexSwapFactoryAddress",
          "type": "address"
        }
      ],
      "name": "setDexSwapFactory",
      "outputs": [],
      "stateMutability": "nonpayable",
      "type": "function"
    },
    {
      "inputs": [
        {
          "internalType": "address",
          "name": "_dexTokenRegistryAddress",
          "type": "address"
        }
      ],
      "name": "setDexTokenRegistry",
      "outputs": [],
      "stateMutability": "nonpayable",
      "type": "function"
    },
    {
      "inputs": [
        {
          "internalType": "uint256",
          "name": "_dexTokenRegistryListId",
          "type": "uint256"
        }
      ],
      "name": "setDexTokenRegistryListId",
      "outputs": [],
      "stateMutability": "nonpayable",
      "type": "function"
    },
    {
      "inputs": [
        {
          "internalType": "address",
          "name": "newOwner",
          "type": "address"
        }
      ],
      "name": "transferOwnership",
      "outputs": [],
      "stateMutability": "nonpayable",
      "type": "function"
    },
    {
      "inputs": [
        {
          "internalType": "address",
          "name": "_stakableTokenAddress",
          "type": "address"
        }
      ],
      "name": "validateToken",
      "outputs": [],
      "stateMutability": "view",
      "type": "function"
    }
  ],
  "bytecode": "0x608060405234801561001057600080fd5b50604051610e82380380610e828339818101604052606081101561003357600080fd5b5080516020820151604090920151909190600061004e610198565b600080546001600160a01b0319166001600160a01b0383169081178255604051929350917f8be0079c531659141344cd1fd0a4f28419497f9722a3daafe3b4186f6b6457e0908290a3506001600160a01b0383166100dd5760405162461bcd60e51b815260040180806020018281038252603f815260200180610e43603f913960400191505060405180910390fd5b6000821161011c5760405162461bcd60e51b8152600401808060200182810382526034815260200180610e0f6034913960400191505060405180910390fd5b6001600160a01b0381166101615760405162461bcd60e51b8152600401808060200182810382526038815260200180610dd76038913960400191505060405180910390fd5b600180546001600160a01b039485166001600160a01b0319918216179091556002929092556003805491909316911617905561019c565b3390565b610c2c806101ab6000396000f3fe608060405234801561001057600080fd5b506004361061009e5760003560e01c80639532b6ab116100665780639532b6ab14610107578063972373371461012d578063d6d4e0231461014a578063f2fde38b14610170578063f7b4deda146101965761009e565b80633c8821de146100a357806355921e43146100c7578063715018a6146100ef5780637f1325d7146100f75780638da5cb5b146100ff575b600080fd5b6100ab6101b0565b604080516001600160a01b039092168252519081900360200190f35b6100ed600480360360208110156100dd57600080fd5b50356001600160a01b03166101bf565b005b6100ed610288565b6100ab610334565b6100ab610343565b6100ed6004803603602081101561011d57600080fd5b50356001600160a01b0316610352565b6100ed6004803603602081101561014357600080fd5b5035610722565b6100ed6004803603602081101561016057600080fd5b50356001600160a01b03166107c8565b6100ed6004803603602081101561018657600080fd5b50356001600160a01b0316610891565b61019e610993565b60408051918252519081900360200190f35b6003546001600160a01b031681565b6101c7610999565b6001600160a01b03166101d8610343565b6001600160a01b031614610221576040805162461bcd60e51b81526020600482018190526024820152600080516020610b1e833981519152604482015290519081900360640190fd5b6001600160a01b0381166102665760405162461bcd60e51b8152600401808060200182810382526038815260200180610ab26038913960400191505060405180910390fd5b600380546001600160a01b0319166001600160a01b0392909216919091179055565b610290610999565b6001600160a01b03166102a1610343565b6001600160a01b0316146102ea576040805162461bcd60e51b81526020600482018190526024820152600080516020610b1e833981519152604482015290519081900360640190fd5b600080546040516001600160a01b03909116907f8be0079c531659141344cd1fd0a4f28419497f9722a3daafe3b4186f6b6457e0908390a3600080546001600160a01b0319169055565b6001546001600160a01b031681565b6000546001600160a01b031690565b6001600160a01b0381166103975760405162461bcd60e51b8152600401808060200182810382526037815260200180610a026037913960400191505060405180910390fd5b60008190506000816001600160a01b0316630dfe16816040518163ffffffff1660e01b815260040160206040518083038186803b1580156103d757600080fd5b505afa9250505080156103fc57506040513d60208110156103f757600080fd5b505160015b6104375760405162461bcd60e51b815260040180806020018281038252603c815260200180610bbb603c913960400191505060405180910390fd5b905060015460025460408051636ec456ef60e11b815260048101929092526001600160a01b038481166024840152905192169163dd88adde91604480820192602092909190829003018186803b15801561049057600080fd5b505afa1580156104a4573d6000803e3d6000fd5b505050506040513d60208110156104ba57600080fd5b50516104f75760405162461bcd60e51b815260040180806020018281038252603e815260200180610b3e603e913960400191505060405180910390fd5b6000826001600160a01b031663d21220a76040518163ffffffff1660e01b815260040160206040518083038186803b15801561053257600080fd5b505afa92505050801561055757506040513d602081101561055257600080fd5b505160015b6105925760405162461bcd60e51b815260040180806020018281038252603c815260200180610a39603c913960400191505060405180910390fd5b905060015460025460408051636ec456ef60e11b815260048101929092526001600160a01b038481166024840152905192169163dd88adde91604480820192602092909190829003018186803b1580156105eb57600080fd5b505afa1580156105ff573d6000803e3d6000fd5b505050506040513d602081101561061557600080fd5b50516106525760405162461bcd60e51b815260040180806020018281038252603e81526020018061099e603e913960400191505060405180910390fd5b6003546040805163e6a4390560e01b81526001600160a01b03858116600483015284811660248301529151828816939092169163e6a4390591604480820192602092909190829003018186803b1580156106ab57600080fd5b505afa1580156106bf573d6000803e3d6000fd5b505050506040513d60208110156106d557600080fd5b50516001600160a01b03161461071c5760405162461bcd60e51b815260040180806020018281038252603d815260200180610a75603d913960400191505060405180910390fd5b50505050565b61072a610999565b6001600160a01b031661073b610343565b6001600160a01b031614610784576040805162461bcd60e51b81526020600482018190526024820152600080516020610b1e833981519152604482015290519081900360640190fd5b600081116107c35760405162461bcd60e51b8152600401808060200182810382526034815260200180610aea6034913960400191505060405180910390fd5b600255565b6107d0610999565b6001600160a01b03166107e1610343565b6001600160a01b03161461082a576040805162461bcd60e51b81526020600482018190526024820152600080516020610b1e833981519152604482015290519081900360640190fd5b6001600160a01b03811661086f5760405162461bcd60e51b815260040180806020018281038252603f815260200180610b7c603f913960400191505060405180910390fd5b600180546001600160a01b0319166001600160a01b0392909216919091179055565b610899610999565b6001600160a01b03166108aa610343565b6001600160a01b0316146108f3576040805162461bcd60e51b81526020600482018190526024820152600080516020610b1e833981519152604482015290519081900360640190fd5b6001600160a01b0381166109385760405162461bcd60e51b81526004018080602001828103825260268152602001806109dc6026913960400191505060405180910390fd5b600080546040516001600160a01b03808516939216917f8be0079c531659141344cd1fd0a4f28419497f9722a3daafe3b4186f6b6457e091a3600080546001600160a01b0319166001600160a01b0392909216919091179055565b60025481565b339056fe44656661756c745374616b61626c65546f6b656e56616c696461746f723a20696e76616c696420746f6b656e203120696e207377617070657220706169724f776e61626c653a206e6577206f776e657220697320746865207a65726f206164647265737344656661756c745374616b61626c65546f6b656e56616c696461746f723a20302d61646472657373207374616b61626c6520746f6b656e44656661756c745374616b61626c65546f6b656e56616c696461746f723a20636f756c64206e6f742067657420746f6b656e3120666f72207061697244656661756c745374616b61626c65546f6b656e56616c696461746f723a2070616972206e6f74207265676973746572656420696e20666163746f727944656661756c745374616b61626c65546f6b656e56616c696461746f723a20302d6164647265737320666163746f7279206164647265737344656661756c745374616b61626c65546f6b656e56616c696461746f723a20696e76616c696420746f6b656e206c6973742069644f776e61626c653a2063616c6c6572206973206e6f7420746865206f776e657244656661756c745374616b61626c65546f6b656e56616c696461746f723a20696e76616c696420746f6b656e203020696e2073776170706572207061697244656661756c745374616b61626c65546f6b656e56616c696461746f723a20302d6164647265737320746f6b656e207265676973747279206164647265737344656661756c745374616b61626c65546f6b656e56616c696461746f723a20636f756c64206e6f742067657420746f6b656e3020666f722070616972a2646970667358221220730d9887b42eb2cb3e929385d39bc9869964c3470c0e1e9918ff44052989bd5164736f6c634300060c003344656661756c745374616b61626c65546f6b656e56616c696461746f723a20302d6164647265737320666163746f7279206164647265737344656661756c745374616b61626c65546f6b656e56616c696461746f723a20696e76616c696420746f6b656e206c69737420696444656661756c745374616b61626c65546f6b656e56616c696461746f723a20302d6164647265737320746f6b656e2072656769737472792061646472657373",
  "linkReferences": {},
  "deployedLinkReferences": {}
}