{
  "_format": "hh-sol-artifact-1",
  "contractName": "DefaultRewardTokensValidator",
  "sourceName": "contracts/DefaultRewardTokensValidator.sol",
  "abi": [
    {
      "inputs": [
        {
          "internalType": "address",
          "name": "_dexTokenRegistryAddress",
          "type": "address"
        },
        {
          "internalType": "uint256",
          "name": "_dexTokenRegistryListId",
          "type": "uint256"
        }
      ],
      "stateMutability": "nonpayable",
      "type": "constructor"
    },
    {
      "anonymous": false,
      "inputs": [
        {
          "indexed": true,
          "internalType": "address",
          "name": "previousOwner",
          "type": "address"
        },
        {
          "indexed": true,
          "internalType": "address",
          "name": "newOwner",
          "type": "address"
        }
      ],
      "name": "OwnershipTransferred",
      "type": "event"
    },
    {
      "inputs": [],
      "name": "dexTokenRegistry",
      "outputs": [
        {
          "internalType": "contract DEXTokenRegistry",
          "name": "",
          "type": "address"
        }
      ],
      "stateMutability": "view",
      "type": "function"
    },
    {
      "inputs": [],
      "name": "dexTokenRegistryListId",
      "outputs": [
        {
          "internalType": "uint256",
          "name": "",
          "type": "uint256"
        }
      ],
      "stateMutability": "view",
      "type": "function"
    },
    {
      "inputs": [],
      "name": "owner",
      "outputs": [
        {
          "internalType": "address",
          "name": "",
          "type": "address"
        }
      ],
      "stateMutability": "view",
      "type": "function"
    },
    {
      "inputs": [],
      "name": "renounceOwnership",
      "outputs": [],
      "stateMutability": "nonpayable",
      "type": "function"
    },
    {
      "inputs": [
        {
          "internalType": "address",
          "name": "_dexTokenRegistryAddress",
          "type": "address"
        }
      ],
      "name": "setdexTokenRegistry",
      "outputs": [],
      "stateMutability": "nonpayable",
      "type": "function"
    },
    {
      "inputs": [
        {
          "internalType": "uint256",
          "name": "_dexTokenRegistryListId",
          "type": "uint256"
        }
      ],
      "name": "setdexTokenRegistryListId",
      "outputs": [],
      "stateMutability": "nonpayable",
      "type": "function"
    },
    {
      "inputs": [
        {
          "internalType": "address",
          "name": "newOwner",
          "type": "address"
        }
      ],
      "name": "transferOwnership",
      "outputs": [],
      "stateMutability": "nonpayable",
      "type": "function"
    },
    {
      "inputs": [
        {
          "internalType": "address[]",
          "name": "_rewardTokens",
          "type": "address[]"
        }
      ],
      "name": "validateTokens",
      "outputs": [],
      "stateMutability": "view",
      "type": "function"
    }
  ],
  "bytecode": "0x608060405234801561001057600080fd5b506040516109ce3803806109ce8339818101604052604081101561003357600080fd5b508051602090910151600061004661013d565b600080546001600160a01b0319166001600160a01b0383169081178255604051929350917f8be0079c531659141344cd1fd0a4f28419497f9722a3daafe3b4186f6b6457e0908290a3506001600160a01b0382166100d55760405162461bcd60e51b815260040180806020018281038252603e815260200180610990603e913960400191505060405180910390fd5b600081116101145760405162461bcd60e51b815260040180806020018281038252603381526020018061095d6033913960400191505060405180910390fd5b600180546001600160a01b0319166001600160a01b039390931692909217909155600255610141565b3390565b61080d806101506000396000f3fe608060405234801561001057600080fd5b50600436106100885760003560e01c8063c8fe2c681161005b578063c8fe2c68146100e0578063d5aae9a614610150578063f2fde38b14610176578063f7b4deda1461019c57610088565b80635ecabd941461008d578063715018a6146100ac5780637f1325d7146100b45780638da5cb5b146100d8575b600080fd5b6100aa600480360360208110156100a357600080fd5b50356101b6565b005b6100aa61025c565b6100bc610308565b604080516001600160a01b039092168252519081900360200190f35b6100bc610317565b6100aa600480360360208110156100f657600080fd5b81019060208101813564010000000081111561011157600080fd5b82018360208201111561012357600080fd5b8035906020019184602083028401116401000000008311171561014557600080fd5b509092509050610326565b6100aa6004803603602081101561016657600080fd5b50356001600160a01b03166104ab565b6100aa6004803603602081101561018c57600080fd5b50356001600160a01b0316610574565b6101a4610676565b60408051918252519081900360200190f35b6101be61067c565b6001600160a01b03166101cf610317565b6001600160a01b031614610218576040805162461bcd60e51b8152602060048201819052602482015260008051602061070e833981519152604482015290519081900360640190fd5b600081116102575760405162461bcd60e51b81526004018080602001828103825260338152602001806106a76033913960400191505060405180910390fd5b600255565b61026461067c565b6001600160a01b0316610275610317565b6001600160a01b0316146102be576040805162461bcd60e51b8152602060048201819052602482015260008051602061070e833981519152604482015290519081900360640190fd5b600080546040516001600160a01b03909116907f8be0079c531659141344cd1fd0a4f28419497f9722a3daafe3b4186f6b6457e0908390a3600080546001600160a01b0319169055565b6001546001600160a01b031681565b6000546001600160a01b031690565b806103625760405162461bcd60e51b815260040180806020018281038252603a81526020018061072e603a913960400191505060405180910390fd5b60005b818110156104a657600083838381811061037b57fe5b905060200201356001600160a01b0316905060006001600160a01b0316816001600160a01b031614156103df5760405162461bcd60e51b81526004018080602001828103825260348152602001806106da6034913960400191505060405180910390fd5b60015460025460408051636ec456ef60e11b815260048101929092526001600160a01b038481166024840152905192169163dd88adde91604480820192602092909190829003018186803b15801561043657600080fd5b505afa15801561044a573d6000803e3d6000fd5b505050506040513d602081101561046057600080fd5b505161049d5760405162461bcd60e51b81526004018080602001828103825260328152602001806107a66032913960400191505060405180910390fd5b50600101610365565b505050565b6104b361067c565b6001600160a01b03166104c4610317565b6001600160a01b03161461050d576040805162461bcd60e51b8152602060048201819052602482015260008051602061070e833981519152604482015290519081900360640190fd5b6001600160a01b0381166105525760405162461bcd60e51b815260040180806020018281038252603e815260200180610768603e913960400191505060405180910390fd5b600180546001600160a01b0319166001600160a01b0392909216919091179055565b61057c61067c565b6001600160a01b031661058d610317565b6001600160a01b0316146105d6576040805162461bcd60e51b8152602060048201819052602482015260008051602061070e833981519152604482015290519081900360640190fd5b6001600160a01b03811661061b5760405162461bcd60e51b81526004018080602001828103825260268152602001806106816026913960400191505060405180910390fd5b600080546040516001600160a01b03808516939216917f8be0079c531659141344cd1fd0a4f28419497f9722a3daafe3b4186f6b6457e091a3600080546001600160a01b0319166001600160a01b0392909216919091179055565b60025481565b339056fe4f776e61626c653a206e6577206f776e657220697320746865207a65726f206164647265737344656661756c74526577617264546f6b656e7356616c696461746f723a20696e76616c696420746f6b656e206c69737420696444656661756c74526577617264546f6b656e7356616c696461746f723a20302d616464726573732072657761726420746f6b656e4f776e61626c653a2063616c6c6572206973206e6f7420746865206f776e657244656661756c74526577617264546f6b656e7356616c696461746f723a20302d6c656e6774682072657761726420746f6b656e7320617272617944656661756c74526577617264546f6b656e7356616c696461746f723a20302d6164647265737320746f6b656e207265676973747279206164647265737344656661756c74526577617264546f6b656e7356616c696461746f723a20696e76616c69642072657761726420746f6b656ea2646970667358221220dc0ce919c4cf50df093d0b69c0923309fd293c95d830232729259112f7ea5da564736f6c634300060c003344656661756c74526577617264546f6b656e7356616c696461746f723a20696e76616c696420746f6b656e206c69737420696444656661756c74526577617264546f6b656e7356616c696461746f723a20302d6164647265737320746f6b656e2072656769737472792061646472657373",
  "linkReferences": {},
  "deployedLinkReferences": {}
}